{
  "contractName": "Fibonacci",
  "abi": [
    {
      "constant": false,
      "inputs": [
        {
          "name": "n",
          "type": "uint256"
        }
      ],
      "name": "generateFib",
      "outputs": [],
      "payable": false,
      "stateMutability": "nonpayable",
      "type": "function"
    }
  ],
  "bytecode": "0x6060604052341561000f57600080fd5b6101bd8061001e6000396000f300606060405260043610610041576000357c0100000000000000000000000000000000000000000000000000000000900463ffffffff1680632ddec39b14610046575b600080fd5b341561005157600080fd5b6100676004808035906020019091905050610069565b005b600080805480600101828161007e9190610140565b91600052602060002090016000600190919091505550600080548060010182816100a89190610140565b91600052602060002090016000600190919091505550600290505b8181101561013c57600080548060010182816100df9190610140565b9160005260206000209001600080600285038154811015156100fd57fe5b90600052602060002090015460006001860381548110151561011b57fe5b906000526020600020900154019091909150555080806001019150506100c3565b5050565b81548183558181151161016757818360005260206000209182019101610166919061016c565b5b505050565b61018e91905b8082111561018a576000816000905550600101610172565b5090565b905600a165627a7a72305820ba9f85facfc9dbc64817e38a6c2ac23c944a8d63570cf386fca9d038b4a175b40029",
  "source": "pragma solidity ^0.4.19;\n\ncontract Fibonacci {\n\nuint[] fibseries;\n\n  function generateFib(uint n) public {\n    fibseries.push(1);\n    fibseries.push(1);\n\n    for (uint i=2; i < n ; i++) {\n      fibseries.push(fibseries[i-1] + fibseries[i-2]);\n    }\n\n  }\n\n}\n",
  "sourcePath": "/Users/randallkanna/Documents/code/eth/fibo/contracts/Fibonacci.sol",
  "compiler": {
    "name": "solc",
    "version": "0.4.19+commit.c4cbbb05.Emscripten.clang"
  },
  "schemaVersion": "2.0.0",
  "updatedAt": "2018-05-17T01:18:20.723Z"
}